{
  "_format": "hh-sol-artifact-1",
  "contractName": "bracket",
  "sourceName": "contracts/Hakathon/Bracket.sol",
  "abi": [
    {
      "inputs": [],
      "stateMutability": "nonpayable",
      "type": "constructor"
    },
    {
      "anonymous": false,
      "inputs": [
        {
          "indexed": false,
          "internalType": "string",
          "name": "tournamentId",
          "type": "string"
        },
        {
          "components": [
            {
              "internalType": "address",
              "name": "host",
              "type": "address"
            },
            {
              "internalType": "uint256",
              "name": "totalRounds",
              "type": "uint256"
            },
            {
              "internalType": "uint256[]",
              "name": "winnerPayment",
              "type": "uint256[]"
            },
            {
              "internalType": "uint256[]",
              "name": "roundWinners",
              "type": "uint256[]"
            },
            {
              "internalType": "uint8",
              "name": "roundNo",
              "type": "uint8"
            }
          ],
          "indexed": false,
          "internalType": "struct bracket.Tournament",
          "name": "list",
          "type": "tuple"
        }
      ],
      "name": "tournamentCreated",
      "type": "event"
    },
    {
      "anonymous": false,
      "inputs": [
        {
          "indexed": false,
          "internalType": "string",
          "name": "tournamentId",
          "type": "string"
        },
        {
          "indexed": false,
          "internalType": "address[]",
          "name": "winners",
          "type": "address[]"
        },
        {
          "indexed": false,
          "internalType": "uint256",
          "name": "winningAmount",
          "type": "uint256"
        },
        {
          "indexed": false,
          "internalType": "uint8",
          "name": "roundNo",
          "type": "uint8"
        }
      ],
      "name": "winningDistributed",
      "type": "event"
    },
    {
      "inputs": [
        {
          "components": [
            {
              "internalType": "address",
              "name": "host",
              "type": "address"
            },
            {
              "internalType": "uint256",
              "name": "totalRounds",
              "type": "uint256"
            },
            {
              "internalType": "uint256[]",
              "name": "winnerPayment",
              "type": "uint256[]"
            },
            {
              "internalType": "uint256[]",
              "name": "roundWinners",
              "type": "uint256[]"
            },
            {
              "internalType": "uint8",
              "name": "roundNo",
              "type": "uint8"
            }
          ],
          "internalType": "struct bracket.Tournament",
          "name": "list",
          "type": "tuple"
        },
        {
          "internalType": "string",
          "name": "tournamentId",
          "type": "string"
        }
      ],
      "name": "createTournament",
      "outputs": [],
      "stateMutability": "payable",
      "type": "function"
    },
    {
      "inputs": [
        {
          "internalType": "string",
          "name": "tournamentId",
          "type": "string"
        }
      ],
      "name": "getWinnerPaymentDetails",
      "outputs": [
        {
          "internalType": "uint256[]",
          "name": "winnerPayment",
          "type": "uint256[]"
        },
        {
          "internalType": "uint256[]",
          "name": "roundWinners",
          "type": "uint256[]"
        }
      ],
      "stateMutability": "view",
      "type": "function"
    },
    {
      "inputs": [
        {
          "internalType": "address[]",
          "name": "winners",
          "type": "address[]"
        },
        {
          "internalType": "string",
          "name": "tournamentId",
          "type": "string"
        }
      ],
      "name": "selectWinner",
      "outputs": [],
      "stateMutability": "payable",
      "type": "function"
    },
    {
      "inputs": [
        {
          "internalType": "string",
          "name": "",
          "type": "string"
        }
      ],
      "name": "tournamentList",
      "outputs": [
        {
          "internalType": "address",
          "name": "host",
          "type": "address"
        },
        {
          "internalType": "uint256",
          "name": "totalRounds",
          "type": "uint256"
        },
        {
          "internalType": "uint8",
          "name": "roundNo",
          "type": "uint8"
        }
      ],
      "stateMutability": "view",
      "type": "function"
    }
  ],
  "bytecode": "0x608060405234801561001057600080fd5b5060016000556110e3806100256000396000f3fe60806040526004361061003f5760003560e01c8063499eeade146100445780639a02106a1461007b578063a36669e2146100fb578063f88fad9614610110575b600080fd5b34801561005057600080fd5b5061006461005f366004610ab2565b610123565b604051610072929190610b2e565b60405180910390f35b34801561008757600080fd5b506100d3610096366004610bca565b8051602081830181018051600180835293830192909401919091209290528154908201546004909201546001600160a01b03909116919060ff1683565b604080516001600160a01b039094168452602084019290925260ff1690820152606001610072565b61010e610109366004610cf9565b610209565b005b61010e61011e366004610dec565b6105c8565b60608060018484604051610138929190610e85565b908152604080519182900360209081018320600201805480830285018301909352828452919083018282801561018d57602002820191906000526020600020905b815481526020019060010190808311610179575b50505050509150600184846040516101a6929190610e85565b90815260408051918290036020908101832060030180548083028501830190935282845291908301828280156101fb57602002820191906000526020600020905b8154815260200190600101908083116101e7575b505050505090509250929050565b6002600054036102605760405162461bcd60e51b815260206004820152601f60248201527f5265656e7472616e637947756172643a207265656e7472616e742063616c6c0060448201526064015b60405180910390fd5b600260005582516001600160a01b031633146102b65760405162461bcd60e51b815260206004820152601560248201527418d85b1b195c881cda1bdd5b1908189948121bdcdd605a1b6044820152606401610257565b60008360200151846040015151146103275760405162461bcd60e51b815260206004820152602e60248201527f746f74616c20726f756e64732073686f756c6420626520657175616c20746f2060448201526d0eed2dcdccae4e640d8cadccee8d60931b6064820152608401610257565b8360200151846060015151146103a05760405162461bcd60e51b815260206004820152603860248201527f746f74616c20726f756e64732073686f756c6420626520616c736f20657175616044820152770d840e8de40e4deeadcc8aed2dcdccae4e65cd8cadccee8d60431b6064820152608401610257565b608084015160ff16156104045760405162461bcd60e51b815260206004820152602660248201527f546f75726e616d656e742073686f756c6420737461727420617420726f756e64604482015265206e6f202d3160d01b6064820152608401610257565b60005b846040015151811015610478578460600151818151811061042a5761042a610e95565b60200260200101518560400151828151811061044857610448610e95565b602002602001015161045a9190610ec1565b6104649083610ede565b91508061047081610ef1565b915050610407565b508034146104e45760405162461bcd60e51b815260206004820152603360248201527f65746820506169642062792074686520486f73742073686f756c6420626520656044820152721c5d585b081d1bc81d1bdd185b105b5bdd5b9d606a1b6064820152608401610257565b83600184846040516104f7929190610e85565b9081526040805160209281900383019020835181546001600160a01b0319166001600160a01b03909116178155838301516001820155908301518051919261054792600285019290910190610a0a565b5060608201518051610563916003840191602090910190610a0a565b50608091909101516004909101805460ff191660ff9092169190911790556040517fdd2762095d775be7fedb6c882c611734c5365fd8a7da6cc026416c17d446f8ed906105b590859085908890610f33565b60405180910390a1505060016000555050565b6000600183836040516105dc929190610e85565b90815260408051918290036020908101832060a08401835280546001600160a01b031684526001810154848301526002810180548451818502810185018652818152929486019383018282801561065257602002820191906000526020600020905b81548152602001906001019080831161063e575b50505050508152602001600382018054806020026020016040519081016040528092919081815260200182805480156106aa57602002820191906000526020600020905b815481526020019060010190808311610696575b50505091835250506004919091015460ff1660209091015280519091506001600160a01b031633146107295760405162461bcd60e51b815260206004820152602260248201527f6f6e6c7920686f73742073686f756c6420646566696e65207468652077696e6e60448201526132b960f11b6064820152608401610257565b8060600151816080015160ff168151811061074657610746610e95565b602002602001015185859050146107ae5760405162461bcd60e51b815260206004820152602660248201527f6c656e677468206f66207468652077696e6e65727320617265206e6f74207468604482015265652073616d6560d01b6064820152608401610257565b600181602001516107bf9190610fb4565b816080015160ff1611156108325760405162461bcd60e51b815260206004820152603460248201527f63757272656e7420726f756e642073686f756c64206e6f742062652067726561604482015273746572207468616e20746f74616c526f756e647360601b6064820152608401610257565b60005b8481101561098357600086868381811061085157610851610e95565b90506020020160208101906108669190610fc7565b6001600160a01b03168360400151846080015160ff168151811061088c5761088c610e95565b602002602001015160006001600160401b038111156108ad576108ad610b5c565b6040519080825280601f01601f1916602001820160405280156108d7576020820181803683370190505b506040516108e59190610fe9565b60006040518083038185875af1925050503d8060008114610922576040519150601f19603f3d011682016040523d82523d6000602084013e610927565b606091505b5050905080156109705760405162461bcd60e51b815260206004820152601460248201527363616e7420506179207468652077696e6e65727360601b6044820152606401610257565b508061097b81610ef1565b915050610835565b507f6da8cfb166b03d67a46776be599d59d09e99ecee8a00eca04fa72ffae19a8a69838387878560400151866080015160ff16815181106109c6576109c6610e95565b602002602001015186608001516040516109e596959493929190611018565b60405180910390a1608081018051906109fd8261108e565b60ff169052505050505050565b828054828255906000526020600020908101928215610a45579160200282015b82811115610a45578251825591602001919060010190610a2a565b50610a51929150610a55565b5090565b5b80821115610a515760008155600101610a56565b60008083601f840112610a7c57600080fd5b5081356001600160401b03811115610a9357600080fd5b602083019150836020828501011115610aab57600080fd5b9250929050565b60008060208385031215610ac557600080fd5b82356001600160401b03811115610adb57600080fd5b610ae785828601610a6a565b90969095509350505050565b600081518084526020808501945080840160005b83811015610b2357815187529582019590820190600101610b07565b509495945050505050565b604081526000610b416040830185610af3565b8281036020840152610b538185610af3565b95945050505050565b634e487b7160e01b600052604160045260246000fd5b60405160a081016001600160401b0381118282101715610b9457610b94610b5c565b60405290565b604051601f8201601f191681016001600160401b0381118282101715610bc257610bc2610b5c565b604052919050565b60006020808385031215610bdd57600080fd5b82356001600160401b0380821115610bf457600080fd5b818501915085601f830112610c0857600080fd5b813581811115610c1a57610c1a610b5c565b610c2c601f8201601f19168501610b9a565b91508082528684828501011115610c4257600080fd5b8084840185840137600090820190930192909252509392505050565b80356001600160a01b0381168114610c7557600080fd5b919050565b600082601f830112610c8b57600080fd5b813560206001600160401b03821115610ca657610ca6610b5c565b8160051b610cb5828201610b9a565b9283528481018201928281019087851115610ccf57600080fd5b83870192505b84831015610cee57823582529183019190830190610cd5565b979650505050505050565b600080600060408486031215610d0e57600080fd5b83356001600160401b0380821115610d2557600080fd5b9085019060a08288031215610d3957600080fd5b610d41610b72565b610d4a83610c5e565b815260208301356020820152604083013582811115610d6857600080fd5b610d7489828601610c7a565b604083015250606083013582811115610d8c57600080fd5b610d9889828601610c7a565b6060830152506080830135925060ff83168314610db457600080fd5b826080820152809550506020860135915080821115610dd257600080fd5b50610ddf86828701610a6a565b9497909650939450505050565b60008060008060408587031215610e0257600080fd5b84356001600160401b0380821115610e1957600080fd5b818701915087601f830112610e2d57600080fd5b813581811115610e3c57600080fd5b8860208260051b8501011115610e5157600080fd5b602092830196509450908601359080821115610e6c57600080fd5b50610e7987828801610a6a565b95989497509550505050565b8183823760009101908152919050565b634e487b7160e01b600052603260045260246000fd5b634e487b7160e01b600052601160045260246000fd5b8082028115828204841417610ed857610ed8610eab565b92915050565b80820180821115610ed857610ed8610eab565b600060018201610f0357610f03610eab565b5060010190565b81835281816020850137506000828201602090810191909152601f909101601f19169091010190565b604081526000610f47604083018587610f0a565b828103602084015260018060a01b03845116815260208401516020820152604084015160a06040830152610f7e60a0830182610af3565b905060608501518282036060840152610f978282610af3565b91505060ff60808601511660808301528092505050949350505050565b81810381811115610ed857610ed8610eab565b600060208284031215610fd957600080fd5b610fe282610c5e565b9392505050565b6000825160005b8181101561100a5760208186018101518583015201610ff0565b506000920191825250919050565b60808152600061102c60808301888a610f0a565b8281036020848101919091528682528791810160005b8881101561106e576001600160a01b0361105b85610c5e565b1682529282019290820190600101611042565b50604085019690965250505060ff91909116606090910152949350505050565b600060ff821660ff81036110a4576110a4610eab565b6001019291505056fea26469706673582212209b8fb612657f48d94e7a952c37e55d87fb2cc952a0e8e0277a5b15c759413afe64736f6c63430008110033",
  "linkReferences": {},
  "deployedLinkReferences": {}
}